:020000040800F2
:1000000000900020BD0C0008790C00087D0C000851
:1000100000000000000000000000000000000000E0
:10002000000000000000000000000000810C00083B
:100030000000000000000000850C0008890C00088A
:100040000D0D00080D0D00080D0D00080D0D000828
:100050000D0D00080D0D00080D0D00080D0D000818
:100060000D0D00080D0D0008910C0008A10C0008F2
:10007000B10C00080D0D00080D0D00080D0D000855
:100080000D0D00080D0D00080D0D00080D0D0008E8
:100090000D0D00080D0D00080D0D00080D0D0008D8
:1000A0000D0D00080D0D00080D0D00080D0D0008C8
:0C00B0000D0D00080D0D00080D0D0008DE
:1001000010B5064C2378002B07D1054B002B02D0ED
:10011000044800E000BF0123237010BD140000203C
:1001200000000000384A0008044B10B5002B03D033
:100130000349044800E000BF10BDC04600000000B5
:1001400018000020384A0008002243088B4274D36C
:1001500003098B425FD3030A8B4244D3030B8B42C8
:1001600028D3030C8B420DD3FF22090212BA030CD1
:100170008B4202D31212090265D0030B8B4219D3B2
:1001800000E0090AC30B8B4201D3CB03C01A5241D2
:10019000830B8B4201D38B03C01A5241430B8B421A
:1001A00001D34B03C01A5241030B8B4201D30B0303
:1001B000C01A5241C30A8B4201D3CB02C01A52412A
:1001C000830A8B4201D38B02C01A5241430A8B42ED
:1001D00001D34B02C01A5241030A8B4201D30B02D6
:1001E000C01A5241CDD2C3098B4201D3CB01C01AF0
:1001F000524183098B4201D38B01C01A52414309FA
:100200008B4201D34B01C01A524103098B4201D3E7
:100210000B01C01A5241C3088B4201D3CB00C01A54
:10022000524183088B4201D38B00C01A52414308CC
:100230008B4201D34B00C01A5241411A00D20146F1
:10024000524110467047FFE701B5002000F006F864
:1002500002BDC0460029F7D076E770477047C04618
:1002600010B592B03822002104A804F0B9FB102286
:100270000021684604F0B4FB8020800001F04CFBB4
:1002800001230493A023DB02059303230C93002393
:100290000D9310330E9380239B020F93E0231B05D5
:1002A0001093802302249B0504A80B94119301F062
:1002B00063FB002801D072B6FEE70723029003908B
:1002C000022168460093019401F010FE002801D03D
:1002D00072B6FEE712B010BDF0B5CE46474680B507
:1002E000A1B000F03BFDFFF7BBFF1422002113A8D3
:1002F00004F076FB042301250227CE4CF121626B2A
:10030000CD481A436263626B002613400293029B3E
:10031000636B00222B436363636B2B400393039B4C
:10032000636B3B436363636B3B400493049B01F04B
:100330008DFA00224021C14801F088FA01220821EB
:10034000BD4801F083FAA02013A9C00513951496A7
:10035000159701F075F90323B74813A91693139560
:100360001495159601F06CF94023B44813A99946E9
:10037000139314951596169601F062F90823AE486A
:10038000139313A90933984614931596169701F001
:1003900057F9F023A84813A91393149515961695A9
:1003A00001F04EF9A36B00222B43A363A36B03213F
:1003B0002B400A200193019B00F052FE0A2000F01E
:1003C00081FE002200210B2000F04AFE0B2000F0ED
:1003D00079FE9B489B4B8024036080239B00036134
:1003E000B13BFF3B43618023DB02C36043466402B1
:1003F000C6618660846106624660436200F0E0FC8C
:10040000002801D072B6FEE72422002113A804F0D0
:10041000E7FA8D4E8D4B3000336000F079FE0028F6
:1004200001D072B6FEE7139014901790102230009E
:1004300013A91597169500F0CDFE061E01D072B6D1
:10044000FEE70100102208A804F0CAFA14223100C5
:1004500013A804F0C5FA0C22310005A804F0C0FA74
:10046000102231000CA804F0BBFA794F794B380008
:100470003B60794B7E60FB608023BE603E61BB6168
:1004800002F0D4FF002801D072B6FEE780233800C6
:100490005B0108A9089302F097FE002801D072B60C
:1004A000FEE7380003F022F8002801D072B6FEE71C
:1004B000702315901690179013A938001394149375
:1004C00002F03CFF002801D072B6FEE74B460790D1
:1004D00005A93800059303F0EFF9002801D072B6A2
:1004E000FEE780213800C90103F084FA021E01D022
:1004F00072B6FEE70C900E900F900CA938000D9587
:1005000003F026F9002801D072B6FEE7002201218F
:10051000380003F083FA051E01D072B6FEE780278B
:1005200001000C2213A804F05BFA4C4C4C4B200049
:100530002360494B6560A560E360A76102F076FF28
:10054000002801D072B6FEE71026159013A92000EE
:10055000139603F0B1F9051E01D072B6FEE7010053
:10056000320008A804F03CFA1422290013A804F071
:1005700037FA0C22290005A804F032FA32002900CB
:100580000CA804F02DFA8023364CDB052360FA23F7
:100590002000DB016560A560E3602561A76102F0D2
:1005A00045FF002801D072B6FEE7802320005B01E2
:1005B00008A9089302F008FE002801D072B6FEE7F1
:1005C000200002F093FF002801D072B6FEE78023DE
:1005D0005B021393702315901690179013A92000B7
:1005E000149302F0ABFE002801D072B6FEE7402360
:1005F000079005A92000059303F05EF9002801D0BB
:1006000072B6FEE780212000090203F0F3F900280A
:1006100001D072B6FEE701230C900E900F900422D9
:1006200020000CA90D9303F093F800281CD072B69B
:10063000FEE7C046001002400004005000080050D1
:1006400030000020000201409000002000740040B3
:100650002803002000040040FFFF00007403002076
:1006600000100040DC02002080210422200049000C
:1006700003F0D4F9021E01D072B6FEE7814B824925
:1006800018005A609A601960C0231B0243618023DE
:100690009B02C261026242628262C2620263836141
:1006A00001F0DAF8021E01D072B6FEE7774B784906
:1006B00018005A6019608023DB008360E023DB00B0
:1006C000C3600225072301268261026242628262C0
:1006D0000263426305614661C36201F03DFF021E91
:1006E00001D072B6FEE76B4B6B491800196080238E
:1006F0009B000361B13BFF3B436180235B0283614D
:100700008023DB02C3601123C26182600262426007
:10071000436200F055FB071E01D072B6FEE70100F0
:10072000102213A804F05CF90C2239000CA804F084
:1007300057F95A4C5A4B200023601F236360594BD2
:10074000A760E3608023276198466761A36102F098
:100750006DFE002801D072B6FEE7802320005B0109
:1007600013A9139302F030FD002801D072B6FEE702
:100770000C900D900E900CA9200003F09DF8071E20
:1007800001D072B6FEE70100102213A804F028F988
:10079000454C464B20002360454B6760E360434671
:1007A000A7602761A36102F041FE002801D072B664
:1007B000FEE7200002F09AFE021E01D072B6FEE7AC
:1007C0001390159013A920001496169502F0C0FFFF
:1007D000002801D072B6FEE700220221200003F0BB
:1007E0001DF9051E01D072B6FEE701001C220CA8FF
:1007F00004F0F6F83422290013A804F0F1F82D4C87
:100800002D4B200023602D4B6560A560E3602561C2
:100810006561A56102F00AFE002801D072B6FEE70C
:10082000200002F033FE021E01D072B6FEE77023F4
:100830000D900E900F901090119012900CA9200026
:100840000C9302F0C3FE002801D072B6FEE78023AD
:10085000139014901590169017909B0119901F906B
:1008600013A92000189303F065F8002801D072B690
:10087000FEE7200000F0D8F903F052FD03F0D4FCAD
:10088000FEE7C0465C010020007C0040940100208F
:10089000003001406000002004020140F801002007
:1008A000002C0140409C0000440200200020004039
:1008B000FFFF00009002002000440140F20700000A
:1008C00072B6FEE70122124B00B5196C05201143E8
:1008D0001964196C83B00A4080210092009ADA6B87
:1008E00049050A43DA63DB6B00220B4001930221C6
:1008F0004042019B00F0B4FB022000220221404252
:1009000000F0AEFB8020800000F04EFA03B000BD86
:100910000010024010B5040088B01422002103A882
:1009200004F05EF82368264A934204D0254A934295
:100930002AD008B010BD0123234AA020516B022405
:1009400019435163526B03A913400193019B032385
:10095000C0050493039400F073FE80231B010393EE
:100960000023049405930693A020073303A9C00530
:10097000079300F065FE002200210C2000F070FBC0
:100980000C2000F09FFBD4E701240F4BA0205A6BF2
:1009900003A922435A635B6BC00523400293029B69
:1009A00008230393053B049300F04AFE80235B0178
:1009B000039302230493002306940593D4E7C046CF
:1009C000000201400402014000100240084B02688E
:1009D00082B09A4201D002B070478021054B890550
:1009E000DA6B0A43DA63DB6B0B400193019BF2E79E
:1009F000007400400010024010B504008EB0342294
:100A0000002101A803F0ECFF0E4B22689A4201D0AE
:100A10000EB010BD802301A89B00019301F02EFBB6
:100A200000280BD18022084B1206D96B0A43DA63E7
:100A3000DB6BDB0FDB070093009BE9E7FFF740FF71
:100A4000F0E7C046007C00400010024070B5040092
:100A500088B01422002103A803F0C2FF234B2268B0
:100A60009A4201D008B070BD8021214B49011A6C17
:100A7000A0200A431A641A6C02250A400192019AC6
:100A80000122596BC005114359635B6B03A91340E5
:100A90000293029BB023049503930592069500F000
:100AA000CFFDA02000264023C00503A90393049591
:100AB00005960696079600F0C3FD0E4D0E4B2800D6
:100AC0002B6010236B6070332B61603BAE60EE6077
:100AD0006E61AE61EB612E6200F034FC002802D141
:100AE000A565AC62BEE7FFF7EBFEF9E70030014019
:100AF00000100240A40000201C00024030B5040099
:100B000095B03422002107A803F06AFF23683E4A0B
:100B1000934256D08022D205934232D03B4A934230
:100B20003AD03B4A93425FD03A4A93423ED03A4A47
:100B300093422FD18021394B89021A6C384D0A43D8
:100B40001A641B6C28000B400693069B354B2B60E8
:100B50002C236B601C3BAB600023EB6080332B616C
:100B600080336B618023DB00AB612023EB61C0230A
:100B70009B012B6200F0E6FB002842D16562AC626B
:100B800008E00123254AD16B1943D163D26B13408E
:100B90000293029B15B030BD0223204AD16B19434A
:100BA000D163D26B13400393039BF3E780211B4B6C
:100BB00009021A6C0A431A641B6C0B400593059BCF
:100BC000E8E7802307A89B03079301F057FA002862
:100BD00014D18021114B09011A6C0A431A641B6C51
:100BE0000B400193019BD5E710230C4AD16B1943AD
:100BF000D163D26B13400493049BCBE7FFF760FEF5
:100C0000E7E7FFF75DFEB9E7002C01400004004074
:100C1000001000400020004000440140001002404D
:100C2000000100205800024010B5040086B01422D4
:100C3000002101A803F0D4FE0C4B22689A4201D097
:100C400006B010BD02230A4A0A48516B194351638A
:100C5000526B01A91A400092009A80225200019220
:100C60000293059300F0ECFCEAE7C0460044014023
:100C70000010024000040050FEE7C046FEE7C046F8
:100C80007047C0467047C04610B500F07BF810BDF5
:100C900010B5024800F078FC10BDC046A40000204A
:100CA00010B5024800F070FC10BDC04600010020E5
:100CB00010B503F0ABFC10BD7047C0460D4885462B
:100CC000FFF7FAFF0C480D490D4A002302E0D45803
:100CD000C4500433C4188C42F9D30A4A0A4C002386
:100CE00001E013600432A242FBD303F081FEFFF760
:100CF000F3FAFEE70090002000000020140000201E
:100D0000F8CB0008140000201C230020FEE70000A0
:100D100070B50F4B04001978002901D1012070BD76
:100D2000FA208000FFF710FA0A4D01002868FFF74B
:100D30000BFA00F0D3F90028F0D1032CEED80138DB
:100D40000022210000F08CF9034B00201C60E6E734
:100D50000400002000000020080000208023084A32
:100D60005B00116810B50B4302201360FFF7D0FF42
:100D7000041E02D00124200010BDFFF7A3FDFAE7F6
:100D800000200240034A044B11681B785B18136073
:100D90007047C046C003002004000020014B1868C3
:100DA0007047C046C0030020034A044913680B4043
:100DB000034313607047C04600000140FFF9FFFF86
:100DC000002370B582B0041E019300D191E0056844
:100DD00001202B68002B00DA89E02923E35CDAB2DA
:100DE000002B00D1B3E02069636929680343206ABE
:100DF0002A680343A0690343E0690343E0680343AF
:100E00006C480240134380222B60636812019342B6
:100E100000D185E0C0204001834200D16BE0664BE9
:100E200066481A6802401A605A6802405A60802276
:100E3000A368D201934200D180E0A020C001834288
:100E400000D1AEE0012B00D1A3E05B4B5C481A68F7
:100E500002401A605A6802405A6030232A681342DE
:100E600014D00B4212D1574B57491868FFF76CF951
:100E7000431C9800C01880000190019B002B05D0F6
:100E8000019B013B0193019B002BF9D14F4BEB18C8
:100E90005A4253418022D20294465B425B0C626A02
:100EA0005B046344910731D04948D10657D50168A6
:100EB000194301604648910657D541688425194376
:100EC00041604349CB600B61900757D5485918439F
:100ED000485180213E48D20757D5425813434350CA
:100EE0002922A35CD8B2002B0ED10133A35402B047
:100EF00070BD0120FBE7304B186802431A605A6846
:100F00002E4802405A6092E70020F0E78420304AE1
:100F10001158994311500438115899431150DFE783
:100F2000254A264E106830401060506803435360D5
:100F30008022A368D201934200D07EE71E4A106847
:100F40000343136053681E480340536085E728330A
:100F5000E2542000E262FFF7DDFC256843E7016808
:100F6000994301601A489106A7D4416884259943A2
:100F700041601749CB600B619007A7D4485998434B
:100F8000485180211248D207A7D442589A43425070
:100F9000A6E7094B186810431860586802435A6066
:100FA0005BE7054B064E18683040186058680243EE
:100FB0005A6052E70F7400FE00020140FFF7FFFF86
:100FC000FFBFFFFF00000020400D030000FEFEBF3A
:100FD00000180240002230B583B0031E01920BD0EE
:100FE000026801201168002904DB2924195DCDB2B3
:100FF000012903D003B030BD0120FBE7116829436C
:10100000116002221A55094B09491868FFF79CF82C
:101010000130C0000190019B002B05D0019B013BDA
:101020000193019B002BF9D10020E3E70000002091
:10103000400D0300030010B500280ED00268012007
:101040001168002908DB29215C5C002C04D014689D
:10105000844314605854002010BD0120FCE7C046B2
:1010600070B5002814DB154B03229C46FF2384082F
:1010700002401800C026D200890190400B409340E6
:10108000A4006444B600A55985432B43A35170BD09
:101090000B4A0F239446032203401040FC321500F4
:1010A000C000890185400A408240083B9B089B00A4
:1010B0006344DC69AC432243DA61E8E700E100E025
:1010C00000ED00E0002805DB1F22012302409340D1
:1010D000014A13607047C04600E100E08022431ED1
:1010E0005204012093420ED2C021074A07485360A0
:1010F000036A09061B021B0A0B430362002300203C
:10110000936007331360704710E000E000ED00E0EB
:1011100010B5041E0FD00379DAB2002B07D00223DA
:1011200023710023002023610133237110BD42711C
:10113000FFF74CFCF3E70120F8E7C046F0B50028C4
:1011400029D04379012B28D0012610223400022512
:101150000A409440036805711F683C431C600029E5
:101160000DD13E2219680A40022A02D15A68324340
:101170005A6001230371002343710020F0BDF8245D
:101180001968A40321402C009440A142F1D15A686F
:101190002A435A60EDE70120F0E70220EEE7C0465F
:1011A00010B5002482B00194002811D0006801908D
:1011B000002908D0019914318A1801920020019A5F
:1011C000136002B010BD019908318A180192F5E749
:1011D0000120F6E7F0B5C64604000D00160000B584
:1011E000002840D000293ED043790F68012B00D160
:1011F0007FE00123437101330371042F35D01022A6
:10120000036832402969012907D11E319140986B4A
:101210008843696991400143996307219140D86BE4
:10122000EE688843A96831433943914001438020E7
:10123000C0019040D9631968814319602F4918682B
:1012400091408843696891400143C02090401960F3
:101250001968814319600123237100230020637101
:1012600080BCB846F0BD0120FAE7FFF797FD236880
:1012700007005A6B002E29D18021090288460A42B4
:101280000DD0FFF78BFD2368C01B012803D9414611
:101290005A6B0A4225D141465A6B0A42F1D1AA69DA
:1012A0001A641022164832409040996C2F6881438E
:1012B000E86990400143FF2090409964D96C8143D4
:1012C000286A90400143D9649CE75A6B002A12DADD
:1012D000FFF764FD2368C01B0128F6D95A6B002A6A
:1012E000F3DA0822236903201343236103232371C4
:1012F000B6E70220B4E7AA695A64D2E7FE0F0000FD
:10130000FF030000F0B5846CC56C6560046D002CB3
:1013100002D0446D856D65601C24056C084E254027
:101320001B3CAC4077683C4374600468636083682E
:10133000102B02D0A160E260F0BDA260E160FBE78B
:1013400000000240F0B5C646040000B5002862D097
:101350000568324B1421E818FEF7F6FE830023647B
:1013600002222523E2542B682D4AA66813402B60E5
:10137000E368216933430B4361692A680B43A16920
:101380000B43E1690B43216A0B4313432B60254B4D
:1013900014219C4660448700FF20234B2840A3640F
:1013A000676408389846FEF7CFFE1F2301220340EA
:1013B000100098408023E064DB019E4221D03F234F
:1013C000454661680B4001393B60686003291DD8C0
:1013D00003201649164D5918013B03409A4000233B
:1013E000890021656565A2650B606A60002325227E
:1013F00001210020E363A154013AA35480BCB84604
:10140000F0BD002363603B604346586000232365C2
:101410006365A365EAE70120F0E7C046F8FFFDBF7A
:101420000F80FFFF00820010800802403F82001002
:1014300040090240F8B52424055D012D1BD001258B
:1014400025260555855DEFB2012D05D08023C363A8
:10145000002303550120F8BD223C84550024C463B9
:1014600004682568BD432560FFF74CFF2368002012
:101470003B432360EFE70220EDE7C046F8B50400E8
:101480002420255C012D35D0012525262554A55D78
:10149000EFB2012D05D08023E36300232354012004
:1014A000F8BD2238A05500202568E0632868B843BD
:1014B00028602000FFF726FF236B002B1CD00E2294
:1014C0002B6813432B60626C1368DB0304D5802305
:1014D00011685B000B431360236D002B04D0802246
:1014E000196852000A431A6001222B680020134336
:1014F0002B60D5E70220D3E704222B6893432B60AF
:101500002B68063213432B60DDE7C04670B5002818
:1015100034D02523C35C022B29D10E210268184C3C
:1015200013681C268B43416C13600B6823400B60CF
:101530000123116899431160026C124932409340B3
:101540004D682B434B60C26C836C5A60036D002B5B
:1015500005D01A6822401A60436D826D5A602523B7
:101560000122C2540022013BC254002070BD04235A
:101570000022C3632033C2540120F7E70120F5E7BE
:10158000FFFEFFFF0000024070B51C2104242B4B1E
:1015900006681A68036C35680B40210099400A42BE
:1015A00010D02C420ED033689B0602D43368A3437C
:1015B0003360224B5A6811435960036B002B00D0F3
:1015C000984770BD0224210099400A4217D02C424E
:1015D00015D033689B0606D40A22336893433360E0
:1015E0002523093AC254154B5A6811435960002209
:1015F0002423C254C36A002BE3D09847E1E70821B3
:101600000C009C402242DCD02942DAD032680631FC
:101610008A433260012215009D402B0007494C6827
:1016200023434B602523C263C2540022013BC254B2
:10163000436B002BC5D09847C3E7C046000002406B
:10164000F0B5DE4657464E464546E0B58B4609683E
:101650000022002383B000297AD001260C009E408E
:101660003440A24631426DD05C4603256468254073
:10167000AC46013D012D00D871E06546032D00D038
:10168000B4E066469640F54300950768009D3D40EE
:101690002E43C025AD0206602C4253D0674E03276F
:1016A000B4469D081F40FF00AD006544BC462E6E49
:1016B0000F27B1466646B7403E004F46B743B9468E
:1016C000A027FF05B84212D05D4FB84200D1A5E077
:1016D0005C4FB84200D1A9E05B4FB84200D196E020
:1016E00066460527B7403E004F463743B9464E464B
:1016F0002E6656468027F643504D7F03B0462D6830
:101700003C4200D080E0354080274C4EBF0335601E
:1017100075683C4200D074E046463540474E7560DF
:1017200084257559A70369D4464635408427434E1E
:10173000F55180257559E4035DD446462E40802539
:101740003E4C66510C000133DC400232002C84D147
:1017500003B0F0BCBB46B246A946A046F0BD8568C2
:10176000A94603259540A846ED434F4600954546BA
:10177000AF435D46ED68B9462F009740B8464F46E7
:1017800045462F43876045682F000125B74326094A
:101790002E409E403E434660C668009D2E40B046A7
:1017A0005E46B668474696403E43C6606746664614
:1017B0009640022F00D068E7DD08AD00AC468444B7
:1017C00065462F6A07251D40AD00A84601970F25E5
:1017D0004746BD40019FAF435D46019747462D698F
:1017E000BD40019F2F4365462F624EE7032595407C
:1017F000ED430095D0E756462E43A0E757463D43BC
:1018000094E757463D4389E757463D437CE76746A3
:101810000326BE404F463743B94668E76646012770
:10182000B7403E004F463743B94660E76746022659
:10183000BE404F463743B94659E7C04600180240FC
:101840000004005000080050000C0050002A01D095
:10185000816170478162FCE7F8B5041E52D03623DF
:10186000C35CDAB2002B43D036230222E254206854
:101870006568C368A66A012D37D08022120496429B
:1018800033D06169204A914201D0204A1340204A56
:10189000276A1A40A3682B433B43676A3B433343A1
:1018A0001343002D18D0012D1AD1E26825692A436F
:1018B0001343154A914204D0A2691143E2691143CE
:1018C0000B43C360134B984217D0E36A436236233D
:1018D00001220020E254F8BDE26925692A4313433E
:1018E000802212049642E4D1DFE71E229343C8E728
:1018F0003533C254FFF780F8B6E7E36A226B13432F
:101900004362E4E70120E6E7FFFF00003F1FFFFF1F
:10191000FEF119FF007C004070B5134C134A236898
:10192000002513400343236080239B00984201D08D
:10193000280070BD0E4B0F491B685800C0184000AE
:10194000FEF702FC80226369D2000130134202D10B
:10195000EEE7002805D0636901381342F9D100256C
:10196000E6E70325E4E7C04600700040FFF9FFFF0B
:101970000000002040420F00F0B5CE46474680B53B
:10198000040083B0002800D1F4E00368DA0731D501
:101990003822C7498868C9680240102A00D1EFE0A0
:1019A000082A00D1F0E0802263685202934200D1FD
:1019B000FDE0A021C9028B4200D1D7E1BC4DBD4959
:1019C0002A680A402A602A68BB490A402A60002B1C
:1019D00000D0F0E0FFF7E2F980270600BF0205E043
:1019E000FFF7DCF9801B642800D938E12B683B4203
:1019F000F6D123689A072BD53823AD4A91680B405E
:101A0000D168102B00D1E7E0002B00D0E9E013688B
:101A10005B0500D5AAE051686369A8481B02014034
:101A20000B435360A24AA64913680B4021690B433C
:101A300013601368A34A9B045B0FDA40A2490A6053
:101A4000A24B1868FFF764F9002800D092E02368E1
:101A50001A076DD45B0745D53823954A91680B402A
:101A6000202B00D1E3E080230020D16B5B05814671
:101A7000194208D1D16B1943D163D26B1340019342
:101A8000019B012399468027914E7F0033683B429A
:101A900000D1D5E0A368012B00D123E1052B00D1B3
:101AA000C3E10121824EF26D8A43F265F26D03318A
:101AB0008A43F265002B00D018E1FFF76FF902238B
:101AC00007009846834D05E0FFF768F9C01BA84260
:101AD00000D9C4E04246F36D1A42F5D14B46012BC2
:101AE00000D15CE1E369002B20D03822704DA96859
:101AF0000A40102A00D10BE1022B00D155E12B68DE
:101B0000754A802613402B60FFF748F9B60404009D
:101B100005E0FFF743F9001B022800D99FE02B687E
:101B20003342F6D1EB686D4A1340EB60002022E0AF
:101B300038225F4DA9680A40182A2FD0A369002BCC
:101B400000D18EE001222B6E022713432B66FFF794
:101B500025F9060005E0FFF721F9801B022800D9CE
:101B60007DE02B6E1F42F6D0236873E7E368002BFD
:101B700000D050E7012003B0C0BCB946B046F0BD6C
:101B8000C943890700D00EE7494A1268920300D47E
:101B900030E76268002A00D02CE7EBE72A6E920754
:101BA00000D457E7A269002A00D053E7E2E7404A91
:101BB00011680B431360FFF7F1F8802605003C4FD6
:101BC000B60204E0FFF7EAF8401B642847D83B68F8
:101BD0003342F7D023680DE70D3B0B40022B00D1B9
:101BE000CEE0E368324D002B4ED02B68344A80277C
:101BF00013402269FF0013432B6080232A685B0097
:101C000013432B60FFF7CAF8060004E0FFF7C6F89D
:101C1000801B022823D82B683B42F7D06A6863698F
:101C200026491B020A4013436B60236810E7D36DFB
:101C30009B0700D456E7A368002B00D052E799E732
:101C400033683B433360FFF7A9F8050033683B4234
:101C500000D01FE7FFF7A2F8401B0228F6D90320A7
:101C600089E701222B6E022793432B66FFF796F834
:101C7000060004E0FFF792F8801B0228EFD82B6ED5
:101C80001F42F7D12368E5E62B68154A80271340E9
:101C90002B60FFF783F8FF00060004E0FFF77EF8F3
:101CA000801B0228DBD82B683B42F7D12368CFE6A4
:101CB00000100240FFFFFEFFFFFFFBFFFF80FFFF62
:101CC000FFC7FFFF0024F4000000002008000020F0
:101CD0000070004088130000FFFFFFFEFCFFFEEED7
:101CE000FFFEFFFF5649CA6D1343CB65FFF756F859
:101CF000534B060098460227524D04E0FFF74EF87A
:101D0000801BA842ABD84346DB6D1F42F6D0E5E608
:101D1000012B00D12EE70323EA68216A13408B428E
:101D200000D027E77023616A13408B4200D021E77F
:101D3000FE21A36AC90111401B02994200D019E794
:101D4000F823E16A9B0313408B4200D012E7E023A3
:101D5000216B1B0513408B4200D00BE7636B520FC6
:101D600052079A4200D005E7002004E78021344B57
:101D7000C90218680143196019680A431A601AE712
:101D800013685B0503D5E368002B00D1F2E65168C8
:101D900063692D481B0201400B43536050E6284AFB
:101DA0002A49D36B0B40D3639CE62B68284A8027D3
:101DB00013402B60FEF7F2FFBF04060005E0FEF7BC
:101DC000EDFF801B022800D949E72B683B42F6D182
:101DD000616A236AEA680B431E49194E0A4013439D
:101DE000E26A1343226B1343626B1343A26A12022B
:101DF0001343EB6080232A685B0413432B6080232A
:101E0000EA685B051343EB60FEF7C8FF802504001A
:101E1000AD0405E0FEF7C2FF001B022800D91EE753
:101E200033682B42F6D00020A5E60421044BDA6D7E
:101E30000A43DA65DA6D03390A43DA6556E7C046C4
:101E40000010024088130000FF80FFFFFFFFFFEF3C
:101E5000FFFFFFFE8C80C1113823214A10B5916825
:101E60000B4205D113681F489B045B0FD84010BD7F
:101E700091681940082912D091681940102910D092
:101E800091681940202922D092681340183B18000D
:101E900043425841FA234042DB011840E7E7124829
:101EA000E5E7D368D168DB43D4684906490F640489
:101EB0000131640E9B070DD00A48FEF745F96043D7
:101EC000074BD968490F0131FEF73EF9CFE7802073
:101ED0000002CCE70448FEF737F96043F0E7C0465C
:101EE000001002400024F40000127A00F8B5CE463B
:101EF000474605000C0080B5002826D00722574E23
:101F0000336813408B425ED32B689A070ED55A076D
:101F100005D5E0225249D201886802438A605049BF
:101F200050488A680240A86802438A60DB072BD5C4
:101F30006B684B4A012B00D17CE0022B07D0002BB1
:101F400000D07DE01268520504D4012037E0126809
:101F50009201FAD50721424EB2688A431343B36017
:101F6000FEF71CFF382398463F4B0700994604E0D4
:101F7000FEF714FFC01B48453BD84346B2681A40E1
:101F80006B68DB009A42F3D10722344E336813406A
:101F9000A34238D82B685B072DD4FFF75DFF304B89
:101FA000324A9B6832491B051B0F9B009B581F221E
:101FB0001340D8402F4B08601868FEF7A9FEC0BC3C
:101FC000B946B046F8BD336893430B433360FEF720
:101FD000E5FE07239846244B07009946424633689E
:101FE0001340A34200D18FE7FEF7D8FEC01B48453F
:101FF000F4D90320E3E71A4A1F4993680B40E968C4
:102000000B439360C9E73368934323433360FEF780
:10201000C5FE07239846144B07009946424633688D
:102020001340A342B6D0FEF7B9FEC01B4845F5D910
:102030000320C4E71268920300D58BE70120BEE7B6
:10204000032B05D0D26D920700D583E70120B6E7B8
:10205000126E920700D57DE70120B0E70020024014
:1020600000100240FFF0FFFF88130000804A0008C4
:102070000000002008000020FF8FFFFFF0B5CE46D3
:10208000474680B50368040083B000209A0352D508
:1020900080227C4B5205D96B8046114200D1C2E0B0
:1020A0008027794D7F002B683B432B60FEF776FE3F
:1020B000060005E0FEF772FE801B022800D9BCE096
:1020C0002B683B42F6D06F4DC023EA6D9B00110098
:1020D00019401A4222D0206B884220D08021EB6D1B
:1020E000EE6D49023143E965E96D684A684E1A4070
:1020F0003140E965EA65DB0700D4C0E0FEF74EFE3B
:10210000644B06000227994605E0FEF747FE801B58
:10211000484500D991E0EB6D1F42F6D0216B594A3A
:102120005A48D36D03400B43D36543460020012B2F
:1021300000D187E02368DA0706D5032551494A6DA7
:10214000AA4365682A434A659A0706D50C254D4976
:102150004A6DAA43A5682A434A65DA0606D5494965
:102160004D4D4A6D2A40E5682A434A659A0506D5D1
:1021700044494A4D4A6D2A40A5692A434A655A0591
:1021800006D54049464D4A6D2A40E5692A434A65CD
:102190009A0606D53B49434D4A6D2A4025692A4394
:1021A0004A655A040AD53749256A4A6D9200920851
:1021B0002A434A658022D20595424AD01A0306D5A1
:1021C000402530494A6DAA43656A2A434A659A0206
:1021D0000AD52C49344E4A6DA56A32402A434A65D5
:1021E0008022D20395423AD05A020AD5254D2F4E6D
:1021F0006A6DE16A32400A436A6580225204914264
:1022000033D01B050AD51F4A6169536D284C234002
:102210000B4353658023DB0199422AD003B0C0BC35
:10222000B946B046F0BDD96B1143D963DB6B13409F
:102230000193019B0123984632E743460320012B7B
:1022400000D077E70F4A1B49D36B0B40D363236859
:1022500071E78022CD6852022A43CA60AEE780222D
:10226000CD6852042A43CA60BEE7EA681143E960B8
:10227000C7E78023D1685B020B43D360CEE7010040
:102280004DE7C0460010024000700040FFFCFFFF19
:10229000FFFFFEFF88130000FFF3FFFFFFFFF3FFC8
:1022A000FFFFCFFFFFCFFFFFFFFFBFFFFFFFFFFEDF
:1022B000FF3FFFFFFFFFFFEFF0B5DE4657464E46FC
:1022C0004546E0B583B01E006B46DF1C00231500B9
:1022D00081460C003B70FEF761FD7619331A984673
:1022E000FEF75CFD4B461B68C0269A46344B83467E
:1022F0001B68F6009A00D218D3009B1A42461B0DA9
:1023000053435246019301E06B1C0BD19368234267
:102310001DD0B442F8D153461B7BDBB23B703B78F7
:102320006B1CF3D0FEF73AFD5B46C01A404516D24F
:10233000019B5A1E934142465B421A40019B9046C4
:10234000013B01934B461A6893682342E1D1002078
:1023500003B0F0BCBB46B246A946A046F0BD4B4612
:10236000E0211B685A688A4349465A6082224968BC
:102370005200914215D04A468021926A89018A42D0
:1023800006D119680F480140196019680A431A609C
:102390005D2301224946CA540022013B0320CA544E
:1023A000D6E74A468021926809028A4203D08021FA
:1023B000C9008A42DFD140211A688A431A60DAE7ED
:1023C00000000020FFDFFFFFF0B5C64600B50C009F
:1023D000160082B00700FEF7E1FC3619361AFEF748
:1023E000DDFC80258046264B1B685B011B0D73437B
:1023F00001933A6801E0631C07D193681D42FAD14A
:10240000002002B080BCB846F0BDFEF7C7FC4346D2
:10241000C01AB04208D2019B5A1E93415B421E4033
:10242000019B013B0193E4E7E0213B685A688A4342
:102430005A60822279685200914213D08021BA6A90
:1024400089018A4206D119680E480140196019684D
:102450000A431A605D230122FA540022013B032043
:10246000FA54CEE78021BA6809028A4203D080215B
:10247000C9008A42E2D140211A688A431A60DDE726
:1024800000000020FFDFFFFFF8B58223170042683D
:1024900004000E005B009A420DD03A00310020008B
:1024A000FFF792FF051E1BD1822362685B009A42F0
:1024B0001CD02800F8BD802283681202934203D00A
:1024C0008022D2009342E8D1402122682000136884
:1024D0008B43136031003A00FFF776FF051EE3D00F
:1024E0002022236E032513432366E2E78022A3689C
:1024F0001202934203D08022D2009342D9D1C0214C
:102500003B0032002000C900FFF7D6FE0028D0D0E3
:10251000E6E7C04670B513000D0016000A00C021A2
:1025200049010400FFF7C8FE00280FD1320029003E
:102530002000FFF749FF002808D1C02133002A00FE
:102540002000C900FFF7B8FE002804D02022032095
:10255000236E1343236670BDF8B5DE4657464E46DC
:1025600045460400E0B5002800D194E0456A002DFE
:102570006BD00023036143610023A3625D33E35CFE
:10258000DAB2002B6ED05D2302224021E254226891
:10259000E06813688B431360E023DB00984268D93E
:1025A000F0231B01984200D077E08023A16A9B01B1
:1025B000194000238C469B46822684276368760058
:1025C0003340A6683F023E40022733432669A16993
:1025D0003E40334301266769B24637403B4380277C
:1025E000BF000F403B43E769090CB8463827B9469E
:1025F00047464E463740266A3B43B046802647460C
:10260000374066463B43334308261360636B3340D1
:10261000F026360130400343042001400B431021D3
:1026200029400B4359460B435360D3691C49002092
:102630000B40D3610023524623665D33E254F0BC65
:10264000BB46B246A946A046F8BD822342685B005D
:102650009A4291D00023C561A3625D33E35CDAB294
:10266000002B90D15C332000E254FEF7EFF9656A4D
:1026700089E7984206D080235B019B4600239C4655
:10268000A36299E78023A16A9B01194080235B0123
:102690008C469B4690E70120D1E700239B46EDE75F
:1026A000FFF7FFFFF8B504005C20255C012D00D189
:1026B00075E0012525540130205C6568C7B201280A
:1026C0000DD0822602207600B54203D05C23002282
:1026D000E254F8BDA568002DF8D1042FF6D10029E9
:1026E0005BD0002A59D0002B57D05D20255C042DEB
:1026F00001D0052525540020A16344212066A3872D
:10270000E38722646352023163522168494DE064D9
:102710002065486828404860E020E568C0008542A0
:1027200045D94B6844480340A06D4B605D23E35C92
:10273000042B5DD0414D424BC362424B0563436362
:10274000002383634633E35A0C319BB2FEF796FEB7
:10275000031E26D10120226851680143606D51603B
:102760000363C36243638363E38FA16B9BB20C3249
:10277000FEF784FE002814D14022236819680A421B
:1027800002D119680A431A6020215A680A435A6024
:102790005A681E390A435A6098E7012096E70220DA
:1027A00097E71022236E0120134323668EE78020D3
:1027B0004D684001284348608020656DC000AD69C8
:1027C000854218D08023A06DDB0085699D42ADD184
:1027D0004B68194D2B404B604623E55AED0714D446
:1027E0004D68194E35404D60E55A6D08E5529DE73C
:1027F000164D174BA0E7DB0711D44B681548034073
:102800004B60E38F5B08E387DCE780254E68AD0112
:1028100035434D60E55A6D080135E55286E7802362
:102820004868DB0103434B60E38F5B080133E387B8
:10283000C8E7C046FF9FFFFFFFEFFFFFE929000841
:10284000912A0008F9290008FFDFFFFFD9290008B5
:102850001D2A0008FFBFFFFFF0B5C6465D2600B584
:10286000855D0400EBB20F009846012D59D18168B7
:1028700000295FD05C23E05C012800D17EE00120CC
:10288000E054002F4FD0002A4DD001330330E054E4
:102890000023403023662764225202302252E36430
:1028A0002365A387E387802325681B02994257D0BD
:1028B0006B68404AE16813406B60E023DB0099429B
:1028C00048D8802369685B010B436B608023A06D4F
:1028D000DB008169994254D0374B29000363374BA1
:1028E0003A00C362364B0C314363002383634633A3
:1028F000E35A9BB2FEF7C2FD00283AD1402223687A
:1029000019680A4202D119680A431A6020215A68DC
:102910000A435A605A681F390A435A60002398468E
:1029200001E0022398465C230022E254404680BC2A
:10293000B846F0BD822340685B0098429AD1013BC3
:10294000FF3BA3553900130020003A00FFF7AAFE11
:102950008046EBE76B681B4AA06D13406B60BBE7DA
:1029600040222B6893432B602B68174A13402B603F
:102970009EE71022236E13432366D4E70223984672
:10298000D4E76B680F490B406B604623E15AC907D7
:1029900006D469680A406A60E25A5208E2529BE72C
:1029A0008022696892010A436A60E25A5208013241
:1029B000E25291E7FFDFFFFFD92900081D2A000836
:1029C000F9290008FFEFFFFFFFBFFFFF7047C04678
:1029D0007047C0467047C04610B5806AFFF7FAFFDF
:1029E00010BDC0467047C04610B5806AFFF7FAFFB9
:1029F00010BDC0467047C0460321806A10B502680A
:102A000053688B4353601022036E134303665D23A8
:102A10000F3AC254FFF7EEFF10BDC04670B5050077
:102A2000846AFEF7BBF92B6820251B6802001D4253
:102A300019D123685968A9435960A168002919D0A0
:102A4000012059688143596064212000FFF71CFD73
:102A500000280CD146230022E25217330132E254FF
:102A6000236E002B10D12000FFF7B0FF70BD202394
:102A70002366EFE705316068FF318842E0D103202B
:102A8000596881435960DFE72000FFF7B3FFEDE7A6
:102A900070B50500846AFEF781F92B6820251B6854
:102AA00002001D421BD1216820004B68AB434B60E4
:102AB0006421FFF72FFD002802D0236E2B432366ED
:102AC0000321226853688B43536000234622E38727
:102AD000A3525D33453AE254236E002B03D120000C
:102AE000FFF776FF70BD2000FFF784FFFAE7C046CE
:102AF00070B50124036A026A144DA243026242685F
:102B000084692C400D682C430225AB438D682B4310
:102B10000F4DA84208D00F4DA84205D00E4DA84237
:102B200002D00E4DA8420BD10825AB43CD688E696B
:102B30002B430425AB430A4D15404A6932432A43CF
:102B400042604A6884614263036270BD8CFFFEFF8D
:102B5000002C014000400140004401400048014079
:102B6000FFFCFFFF70B5184A046A036A1340036252
:102B70004268164BC5691D400B681D43144B1C4031
:102B80008B681B022343134CA04215D0124CA04269
:102B900005D0124CA04202D0114CA04206D1114CDB
:102BA0004E6914408A6932431201224342604A68E6
:102BB000C561C263036270BD0B4C1C40CB681B0235
:102BC00023430A4C2340EAE7FFFEFFFF8CFFFEFF92
:102BD000FFFDFFFF002C0140004001400044014088
:102BE00000480140FFCFFFFFFFF7FFFFFFFBFFFFA4
:102BF00030B5144A046A036A134D134003624368F4
:102C0000C2692A400D682D021543104A14408A6893
:102C1000120322430E4CA04208D00E4CA04205D015
:102C20000D4CA04202D00D4CA04204D10C4C1C40D3
:102C30004B699B01234343604B68C5610364026297
:102C400030BDC046FFEFFFFFFF8CFFFEFFDFFFFF41
:102C5000002C014000400140004401400048014078
:102C6000FFBFFFFF30B5134A046A036A124D1340D9
:102C700003624368426D2A400D6815430F4A1440B1
:102C80008A68120422430E4CA04208D00D4CA04288
:102C900005D00D4CA04202D00C4CA04204D1054CF2
:102CA0001C404B691B02234343604B6845658365A9
:102CB000026230BDFFFFFEFF8FFFFEFFFFFFFDFF43
:102CC000002C014000400140004401400048014008
:102CD00030B5144A046A036A134D13400362436813
:102CE000426D2A400D682D021543104A14408A682F
:102CF000120522430E4CA04208D00E4CA04205D033
:102D00000D4CA04202D00D4CA04204D10C4C1C40F2
:102D10004B699B02234343604B684565C365026270
:102D200030BDC046FFFFEFFFFF8FFFFEFFFFDFFF5D
:102D3000002C014000400140004401400048014097
:102D4000FFFFFBFF30B50468364BA26836481A40D7
:102D50004B681A43024008680243A260502B26D0F9
:102D600010D9602B36D0702B59D1A2682F4B8868B0
:102D70001A40CB6809690343002009020B4313433F
:102D8000A36030BD402B39D00120402BF9D8202B37
:102D90000BD004D9303B5A1E9341D8B2F1E7102230
:102DA00093435A1E9341D8B2EBE70020E9E701258F
:102DB0008A680B69216A206A1B01A8432062A06906
:102DC000EF35A84303430A2081430A43A36100204F
:102DD0002262D6E710258B680A69216A206A1203ED
:102DE000A8432062A069124D1B0128400243A02085
:102DF00081430B43A26100202362C2E705280ED065
:102E00000122206A236A93432362F023A2699A4332
:102E10000B691B011343A36120620020B1E701206D
:102E2000AFE7C0468FFFCFFFF8FFFEFFFF00FFFFB9
:102E3000FF0FFFFF3D22815C03000120012913D118
:102E4000013199541B68114A93420ED08022D20559
:102E500093420AD00E4A934207D00E4A934204D0BE
:102E60001A68024300201A6070479A680A490A40AB
:102E7000062A08D007398A4205D001211A680020A5
:102E80000A431A60F0E70020EEE7C046002C01403C
:102E90000004004000400140070001000300102929
:102EA00003D841488A008258974643229A5C012AF7
:102EB00049D1102903D83D488A00825897464322B9
:102EC000022098541F2211401E3A8A401B68196A3A
:102ED00091431962196A0A431A62354A93424DD0E6
:102EE000344A934259D0344A934256D0334A93429B
:102EF00053D08022D205934245D0314A934242D0EA
:102F00002C4A93423FD0012100201A680A431A60DC
:102F100070473E229A5C0120012AF9D13E2202200C
:102F20009854CFE73F229A5C0120012AF0D13F223A
:102F300002209854C6E741229A5C013A501E824111
:102F4000D2B2002AB5D00120E2E740229A5C012AE1
:102F5000AFD00120DCE742229A5C013A501E824148
:102F6000D2B2EEE7412202209854ABE74022022081
:102F70009854A7E7422202209854A3E78022596C74
:102F800012020A435A649A680E490A40062A02D07D
:102F900007398A42B7D10020BAE78022596C120261
:102FA0000A435A64A5E7C046C04A0008044B00081B
:102FB000002C014000400140004401400048014015
:102FC000000400400700010030B51F2501240D401A
:102FD000AC4003681A6AA2431A621A6A1A62244A47
:102FE000934217D0234A934214D0234A934211D0DC
:102FF000224A93420ED01C6A214A144203D11C6A11
:10300000204A14421FD0002911D13E230122C2546C
:10301000002030BD1C6A1A4A1442ECD11C6A194ABD
:103020001442E8D15A6C184C22405A64E3E7042950
:103030000ED0082914D00C290ED0102914D0432307
:103040000122C254E4E701241A68A2431A60DAE7B5
:103050003F230122C254DBE741230122C254D7E7B8
:1030600040230122C254D3E742230122C254CFE7B6
:10307000002C014000400140004401400048014054
:103080001111000044040000FF7FFFFF7047C0469D
:1030900010B5FFF703FF10BD10B5FFF795FF10BD8A
:1030A0007047C0460200102903D841488B00C3581E
:1030B0009F464323D05CC0B2082946D04723D35C47
:1030C000DBB201280FD1012B0ED110290DD83948C0
:1030D0008B00C3589F463E23D05C0633D35CC0B2FE
:1030E000DBB20128EFD00120704743230220D054E7
:1030F00008294BD146230220D054136801201F22F7
:103100000A40010091400A00196A91431962196A44
:103110000A431A62284A934225D08022D20593425C
:1031200021D0264A93421ED0254A93421BD01A68CA
:1031300002431A600020D7E73F23CDE74223D05C4B
:10314000C0B2BBE74023D05CC0B24623D35CDBB245
:10315000B7E74123D05CC0B2B0E702233E2013544E
:1031600006301354C9E79A6816490A40062A08D05F
:1031700007398A4205D001211A6800200A431A60E3
:10318000B2E70020B0E741230220D05447230220B9
:10319000D054B2E702233F20135406301354ACE757
:1031A00042230220D054F1E740230220D054A1E76B
:1031B000484B00088C4B0008002C014000040040E4
:1031C00000400140070001003C2370B50200C05CD4
:1031D000012800D175E001240220D4540133D054D9
:1031E0001068524D83682B4083600B68602B00D1C0
:1031F00069E023D8402B00D17FE052D9502B3BD13E
:103200004D68CB68016A066A1B01A6430662F02678
:103210008469B44323430A24A1432943836101629F
:10322000836843490B4057210B43836000203D23B3
:103230000121D1540021013BD15470BD802464018F
:10324000A3423CD08024A401A34217D18468394B07
:103250004D681C408B68C9682B4309020B4323430C
:10326000836080238168DB010B4383600020DEE7FD
:1032700010211C008C4319D00120D8E7702BFBD102
:1032800084682C4B4D681C408B68C9682B4309022D
:103290000B4377212343836083680B4383600020C3
:1032A000C5E7202B02D0E3D9302BE5D18168204C33
:1032B00021400B4307210B4383600020B7E7002028
:1032C000B5E70220B9E71026046A056A4B68B543E2
:1032D000C96805628569184E090335402943A02550
:1032E0001B01AC43234381610362836810490B4097
:1032F00067210B438360002099E74D68CB68016A22
:10330000066A1B01A6430662F0268469B443234380
:103310000A24A143294383610162836804490B4065
:1033200047210B438360002081E7C0468800CEFF21
:103330008FFFCFFFFF00FFFFFF0FFFFFF8B53C251A
:10334000435D0400012B19D001273D260223475578
:103350008355FFF7F7FC00280BD140212368DA687A
:103360008A43DA60DA6806490A40DA60A755605590
:10337000F8BD0023A75501206355F9E70220F7E7C0
:10338000FFBFFFFF224A036890422DD08022D20562
:10339000904220D01F4A90421DD01F4A90421ED01A
:1033A0001E4A904224D01E4A904221D01D4A90428B
:1033B0001ED0802293434A69134303608B68C36223
:1033C0000B688362012343610269134202D00269E0
:1033D0009A4302617047702293434A681343124A2A
:1033E0001340CA681343E4E7702293434A681343C7
:1033F0000D4A1340CA681343802293434A6913431A
:1034000003608B68C3620B6883620B690363D9E74F
:10341000002C01400004004000200040004001401A
:103420000044014000480140FFFCFFFF70B5041E4E
:103430002AD03D23C35CDAB2002B20D002233D25E5
:103440002100635501C9FFF79DFF01234822002099
:10345000A3540A3AA3540132A3540132A3540132B3
:10346000A3540132A3540132A3540132A3540132B4
:10347000A3540132A3540132A354635570BD3C33AD
:10348000C254FDF73BFBD9E70120F7E770B5041EF6
:103490002AD03D23C35CDAB2002B20D002233D2585
:1034A0002100635501C9FFF76DFF01234822002069
:1034B000A3540A3AA3540132A3540132A354013253
:1034C000A3540132A3540132A3540132A354013254
:1034D000A3540132A3540132A354635570BD3C334D
:1034E000C254FFF7D3FDD9E70120F7E770B5041EFA
:1034F0002AD03D23C35CDAB2002B20D002233D2525
:103500002100635501C9FFF73DFF01234822002038
:10351000A3540A3AA3540132A3540132A3540132F2
:10352000A3540132A3540132A3540132A3540132F3
:10353000A3540132A3540132A354635570BD3C33EC
:10354000C254FFF7ADFDD9E70120F7E7102270B5AF
:10355000046A036A174D93430362436882692A40F1
:103560000D682D021543202294438A6812012243DC
:10357000114CA04215D0114CA04205D0104CA042D5
:1035800002D0104CA04206D10F4C4E691C408B69F2
:1035900033439B00234343604B688561836302622E
:1035A00070BD8024A2431600CA68403C1201324319
:1035B000A243E9E7FF8CFFFE002C014000400140E0
:1035C0000044014000480140FFF3FFFF3C2370B579
:1035D0000D00C15C0400012900D184E00121C15427
:1035E000142A03D8414B92009B589F4601203C234C
:1035F0000022E25470BD066829003000FFF768FB26
:103600008023726D1B0113437365736D384A00206C
:10361000134073652B69726D1B0213437365E6E7F4
:10362000066829003000FFF763FA0822B36900201A
:103630001343B361B369043A9343B361B3692A692D
:103640001343B361D3E7066829003000FFF77EFF1C
:103650008023B2691B011343B361B369244A00207C
:103660001340B3612B69B2691B021343B361BEE718
:10367000066829003000FFF775FA0822F369002078
:103680001343F361F369043A9343F361F3692A69DD
:103690001343F361ABE7066829003000FFF7A8FA8F
:1036A0008023F2691B011343F361F369104A002080
:1036B0001340F3612B69F2691B021343F36196E730
:1036C000066829003000FFF7CDFA0822736D00204C
:1036D00013437365736D043A93437365736D2A697D
:1036E0001343736583E7022084E7C046D04B00088C
:1036F000FFFBFFFFF0B50126046A056A1700B5431A
:103700000562104D8269A8420BD08025ED05A842C4
:1037100007D00D4DA84204D00C4DA84201D0324331
:1037200002E00325AA433A43F025AA431D01FF23E3
:103730002B4013430A2294430A40224383610262CE
:10374000F0BDC046002C0140000400400040014094
:10375000F0B5C6463C2300B50D00C15C040001294C
:1037600048D00121C154002A0CD0042A1BD0082AB9
:1037700042D001200C2A68D03C230022E25480BCB5
:10378000B846F0BD0668EB6830006A682968FFF744
:10379000B1FF0C22B36900209343B361B369AA68F7
:1037A0001343B361E8E7EA68036890461022186A99
:1037B0001F6A2E68974369681F629F69374A09022A
:1037C000174042463943364F12073940120C0A431C
:1037D000A02136018843314001439A6119629A69F8
:1037E000304900200A409A61AA68996912020A4386
:1037F0009A61C1E70220C2E703682A681E6A904600
:10380000196A294A68681140EF681962D969053256
:10381000FF3291430843F0213F0188430F31394083
:103820000143224842463040A026D9610C211202B1
:103830003601324002431A62DA6900208A43DA61B3
:10384000DA69A9680A43DA6196E72A68236890462C
:103850001E6A174A1F6A68681740E9681F62DF69B5
:103860000E4A0002174038430D4F09073840090C33
:103870000143104842463040A0261203360232402F
:103880000243D9611A62DA69064900200A40DA6106
:10389000AA68D96912020A43DA616DE7FFFCFFFFEB
:1038A000FF0FFFFFFFF3FFFFFFFEFFFFFFF5FFFF2F
:1038B000FFEFFFFFFF5FFFFF3C2330B5C35C012B31
:1038C0002ED03D230222C2540368164D5A689C68CC
:1038D000AB421BD07025AA430D682A435A60802250
:1038E000D205934205D0104A934202D00F4A934228
:1038F00004D1802294438A6814439C603D230122B2
:10390000C2540022013BC254002030BD084D2A4061
:103910004D682A437025AA430D682A435A60E8E798
:103920000220F2E7002C014000040040004001406A
:10393000FFFF0FFF3C2310B5C35C012B3DD0204A95
:10394000CB68046813408A6813431E4A13404A68D0
:1039500013431D4A13400A6813431C4A13400A6963
:1039600013431B4A13404A6913431A4A13400A6B14
:103970001343194A13408A6912041343174A134028
:10398000CA691343164A944205D0636400223C235B
:10399000C254002010BD134A13408A6A12051A430C
:1039A000114B1A400B6A1A43104B1A404B6A1A43C8
:1039B0000F4B1A40CB6A1343E7E70220EAE7C04601
:1039C000FFFCFFFFFFFBFFFFFFF7FFFFFFEFFFFF26
:1039D000FFDFFFFFFFBFFFFFFFFFF0FFFFFFFFEF76
:1039E000002C0140FFFF0FFFFFFFFFFEFFFFFFFD69
:1039F000FFFFFFDF3C2230B50B00815C012909D0BD
:103A00000468054D216E2940194300232166835423
:103A1000002030BD0220FCE7FF3FFCFF03003C20FC
:103A2000185C10B5012822D0042A08D0082A16D024
:103A30000120002A0BD03C220021995410BD1868A7
:103A40000C4C826E22400A4382660020F3E70F246A
:103A50001868826EA2430A4382660020EBE718686A
:103A6000054C826E22400A4382660020E3E7022072
:103A7000E4E7C046FFF0FFFFFFFFF0FF000000009B
:103A80000000000000000000000000000000000036
:103A90000000000000000000000000000000000026
:103AA0000000000000000000000000000000000016
:103AB0000000000000000000000000000000000006
:103AC00000000000000000000000000000000000F6
:103AD00000000000000000000000000000000000E6
:103AE00000000000000000000000000000000000D6
:103AF00000000000000000000000000000000000C6
:103B0000F0B544464D4656465F46F0B45043364EF7
:103B100036188000354F3F189500ED190435AB4637
:103B20008D00AA4632480068324A34783B685344D4
:103B30001B68013604379905890F6140515C01709B
:103B40003D689904890F6140515C01705544C0463D
:103B50009903890F6140515C01702D689902890FAA
:103B60006140515C0170A846C0469901890F6140CF
:103B7000515C0170C046C0469900890F6140515C9C
:103B8000017035781905890F6140515C0170A946B3
:103B9000C0461904890F6140515C0170C046C0469F
:103BA0001903890F6140515C01700136C04619024A
:103BB000890F6140515C01700437C0461901890FBB
:103BC0006140515C0170990F6140515C5F45434613
:103BD0004C460170AFD11178F0BCA046A946B24660
:103BE000BB460170F0BD0000200E0020C80300207D
:103BF00010000020D01A002080220021920010B571
:103C0000054800F0EDFE8022044B12019918044A89
:103C100004C38B42FCD110BDB60E0020200600204C
:103C2000404C00080300203B30B55F2B11D80A4BF5
:103C3000C2009C461218D20062440849084D0B6825
:103C400008489C000133DB055219DB0D22500B6044
:103C500030BD054AF1E7C04600F7FFFFC40300206E
:103C6000409E0008C8030020B81A0000F0B5C64600
:103C7000144B04781A689C46D20500B5D20D002C6E
:103C80001AD0114F114E124D0FE0E3001B19114CC9
:103C9000DB00A0464344541CB954EB189200B350C7
:103CA000E2050478D20D002C06D02300203B013021
:103CB0005F2BEAD9084BEEE763461A6080BCB84632
:103CC000F0BDC046C4030020200E0020C803002021
:103CD000409E000800F7FFFFB81A000010B50C0165
:103CE000641A640024180449E405E40D0C60100013
:103CF0001900FFF7BBFF10BDC4030020F0B54F460D
:103D0000D6464646374AC0B5146805000C19E30587
:103D1000DB0D13604B1E0F00132B2BD8013CE40569
:103D2000E40D02292BD8304B0A219946FCF792FA70
:103D30002E4A303194462E4ACB0092464A465B18B2
:103D4000DB006344A60053449351012F12D0661E3A
:103D50000A212800FCF7F8F90F23244A184094465A
:103D60004A463030C3001B18DB00F4056344640D81
:103D700053441351E0BCBA46B146A846F0BD0223F5
:103D80009846194B99461A4B9A4628000A21FCF787
:103D900061FA164A303194464A46CB005B18DB0084
:103DA00063445344661EA400135128000A21FCF703
:103DB000CBF901239C46F605E0440500F40D474588
:103DC000E3D10A21FCF746FA084A303194464A46C4
:103DD000CB005B18DB006344661E5344A400135100
:103DE000B6E7C046C4030020C803002000F7FFFF69
:103DF000409E00080021064A10B5064800F0F0FD7C
:103E0000054A064B9918064A04C38B42FCD110BDE3
:103E100096020000200E0020580A0000C80300206F
:103E2000404C000810B5124B1B785B0610D50023E0
:103E30001049114A1148124C00E0E15AD1520233A4
:103E40008342FAD180220F4B12010F48DA6210BD73
:103E500000239721084A0D480D4C00E0E15AD15249
:103E600002338342FAD1074B0A4A0B48DA62EEE783
:103E7000F41A0020A6060000B8100020C4090000B3
:103E800074C1000800440140E2040000340800004E
:103E900040B90008F20700001A0400000122134B89
:103EA00070B51A600022124B124C5A630021200098
:103EB000FFF7F2F8FFF7B6FF050000F00BFC0E4825
:103EC000FDF788F800212000FFF7E2F82B000B49EE
:103ED0000B4A0C48FDF7AEFAC0220B4BD200DA6059
:103EE0000A4B1A780A4B5A6170BDC0467C1A0020F2
:103EF000000400409002002060000020B810002064
:103F0000344401400001002000440140D01A002048
:103F10000004005010B50348FFF788FA0022024B56
:103F20001A6010BD900200207C1A002010B5164CBB
:103F30002368002B09D0154B154A596B914203D9C0
:103F40005A6B144B9A420CD910BD104B5A6A8023FD
:103F50001B029A42F8D9FFF7A1FF2368002BF3D088
:103F6000E9E700230C482360FDF764F800210B48C3
:103F7000FFF792F80A48FDF7C9FA00F0ABFB094BCE
:103F80001A78094B5A61DFE77C1A002000040040D0
:103F9000C50E00001C1100006000002090020020EF
:103FA00000010020D01A00200004005010B5114A72
:103FB000002302210C20FFF791FE0F4B0A21D86944
:103FC000FCF7C2F801000D48FCF7BEF804006421BC
:103FD000FCF7BAF80221FFF791FE2E20FFF722FE30
:103FE00020006421FCF736F908000221FFF786FE65
:103FF00010BDC04638CB0008A81A002000404B4C2A
:104000007E4BF0B557469A46DE464E46454600235F
:104010005246E0B51E2587B013600021784A103360
:104020000020FFF75BFE774B774EA4331A00009316
:10403000764B03960193140033002C3C08C448339C
:104040009442FBD1019B0B225819042100F0C8FCBB
:10405000C6239B009C4622001E3566447832782D8C
:10406000E9D1002301210C20694AFFF737FE002324
:1040700003210C20674AFFF731FE002303211220A1
:10408000654AFFF72BFE02235A279846634D644E7C
:104090002C6842464146336823401A40194200D1F9
:1040A0009FE053461B6894432C60002B02D1FFF71E
:1040B0007DFF2C68013F002FEBD11E2399461C3B4E
:1040C0009B465346B2462E004D4604970593002367
:1040D0002A009946039BA04602964C461D001600F6
:1040E0009146009F3A002B002C3A08C24833974271
:1040F000FBD1019B0B229819042100F071FCC6230F
:104100009B009C460B3465441E367837212CE9D140
:10411000534644465A4659461B684D462340029E24
:104120001A4019420BD1574600F03EFC5A465946F8
:1041300034683B6823401A401942F5D0BA46009BC8
:1041400094430833023534600093322DBFD1059B70
:10415000350056469A46334B049F984604E08B43FD
:1041600002372B601E2F28D0002342460121380041
:10417000FFF7B4FD0023424602213800FFF7AEFDF1
:104180000023424603213800FFF7A8FD022001006A
:104190002B68326802241A4011401042DFD100F02F
:1041A00003FC21002B6832681A4011401442F6D0FB
:1041B0008B4302372B601E2FD6D102241D3F04E013
:1041C0008B4301372B60062F11D052461760210018
:1041D00032681A4011401442F2D100F0E5FB2B681E
:1041E000F5E700F0E1FBFFF7A1FE2C6851E707B00F
:1041F000F0BCBB46B246A946A046F0BD0C0000206C
:1042000040CB0008C8030020C0940008200E002006
:1042100060CB000874CB00087CCB0008841A002017
:10422000801A002088CB0008F8B557464E46454610
:10423000DE46E0B50627364B02249A465B78354DBC
:104240005B101F4001231F4300239946324B334E1E
:10425000984603239B4600F0A7FBFFF767FE21006B
:104260002A683368134019401C42F4D043461B6847
:104270008A432A60002B1DD0002F19D101239C46B0
:1042800053465A465B78E1441340022B29D0032B56
:1042900020D0012B11D001204B46184000F06CFAC1
:1042A00053465F7806237F101F40053B1F43D2E72C
:1042B000013FD0E7FFF77AFEDEE74B46002B1AD02E
:1042C000002000F059FA4B46012BE9DD01235B4247
:1042D0009946E5E74B46002B13D1002000F04CFA3D
:1042E000DEE74B46002B06D0002000F045FA4B4697
:1042F000022BEBDCD4E7012000F03EFA00239946C4
:10430000CEE7012000F038FA4B46022BDEDCC7E78F
:10431000F41A0020841A00200C000020801A0020CB
:1043200010B500F05FFAFFF765FD00F057FAFFF7F0
:10433000F1FD00F007F800F045F800F029FBFFF769
:104340005FFE10BD10B5144A144B9918144A04C3EB
:104350009942FCD10021134A134800F041FB052289
:10436000124C134B20001A60FFF7C0F80021200008
:10437000FEF798FE0F48FEF75DFD04210E48FEF79C
:1043800091FE00210D48FEF78DFE80230C4A5B0450
:1043900011680B43136010BD580A0000C8030020C9
:1043A000404C000896020000200E0020440200202D
:1043B0000C00002074030020DC02002028030020F1
:1043C000801A0020E92210B50F4B104C1A60002112
:1043D000FF2300222000FCF7E3FE902300225B0075
:1043E00010212000FCF7DCFE00212000FCF7A6FED7
:1043F00010212000FCF7A2FE0548FCF7EBFD80220F
:10440000044BD2021A6010BD881A002090000020D0
:104410003000002080E100E070B5224D2C68002CB7
:104420000BD02149214B08681A68013402400A6008
:10443000012252422C601A6070BD402101221C48AA
:10444000FDF704FA1B490B68FE2B05D0FD2B11D09C
:104450003222FF32934220D00120174A1060174ABF
:104460002C68936000230B60154B164ADB780133F0
:104470001360D6E7104A1460104A2C68D3600023FA
:104480000B6091699361D161116913610C4B5161AA
:10449000DB780C4A01331360C3E7074A1268002A2D
:1044A000EAD0DCE7901A0020801A0020841A00204D
:1044B00000080050A01A00208C1A0020A81A002022
:1044C000F41A0020A41A0020F8B5434C434D236889
:1044D0002A68934215D9424B9B78002B04D0C046E2
:1044E000C046013B002BFAD13E4D3F4A2B68126873
:1044F00093423AD34CD001332B60236801332360BD
:10450000F8BD3A4E3168002914D19A42F6D1384AA2
:10451000384912680868002A48D1053202430A6007
:104520000021304A344811600068344A1060344A2F
:104530001160E3E7002240213248FDF787F932227B
:10454000314BFF32996891423AD0E921264A1160F5
:10455000274A31681268002A2BD0196000232A6884
:10456000336023689A42C9D1D1E7254E234F1E22DA
:1045700031683868FFF7C4FA336801333360112BB0
:1045800004D9002333603B6801333B602B68B2E7FA
:104590001A490A6801320A60154A16491268002A47
:1045A00009D00A200A6802430A60A4E704220243F1
:1045B000B5E75960D2E708200A6802430A609AE723
:1045C00031680E270A000C3A501E82410848FF3716
:1045D000026005480760BEE7A01A0020A41A002068
:1045E000F41A0020941A0020881A0020901A002043
:1045F0008C1A0020801A00200C0000209C1A002039
:10460000981A002000080050A81A0020274B70B507
:10461000DB685B0336D58023DB05986B244C00B246
:1046200003006362214BDB689B0333D480250123A5
:10463000ED052362A3691F491B18A3611E4B0E6879
:104640001A6832400A60012252421A601B4A83B241
:104650009A181B4992B28A4224D91A4A9446C72210
:1046600063449BB25200934219D9174B1A78174BE7
:104670005A61C0220D4BD202DA606A6A23699B1824
:10468000236170BD01230A4C00206362074BDB6885
:104690009B03CBD50E4D686B00B20300C9E7FFF753
:1046A000BBFEE6E7FFF710FFE3E7C0460018024055
:1046B000A81A0020801A0020841A00203AF1FFFF77
:1046C00056020000CFF8FFFFD01A0020000400506F
:1046D00000040040F0B5D6464F464646C0B5234BD1
:1046E00070275A78197C032318000F2617400922D7
:1046F000084089100B400333361A19015037360130
:104700001743164311432822CBB29A46184B9446BE
:104710001B68FFB2F6B2002B09D051463039CBB23C
:104720009A4601239C46303F303EFFB2F6B2042148
:1047300089460339002288460E4B4846654610429A
:1047400000D03D00414634005046114201D154464C
:10475000300001321D709F705C70D8700433082ADD
:10476000EBD1E0BCBA46B146A846F0BDF41A002031
:104770007C1A0020D01A002030B5174A002817D024
:104780005578D478022302210120093205E0147003
:10479000957001330432082B09D01942F9D0184220
:1047A000F5D10133157094700432082BF5D130BD6A
:1047B0001578147C022302210420093205E01470CC
:1047C000947001330432082BF1D01942F9D0184209
:1047D000F5D115709570F4E7D01A002010B5FFF7E9
:1047E00079FF10BD002200230449054800E01A5C4F
:1047F000CA540133202BFAD17047C046F41A002066
:10480000D0CB0008F8B5594A1378012B06D0022BFB
:104810001BD0002B11D000231370F8BD00231370A0
:10482000534B1C781F2CF8D8524D295D2855102C5D
:10483000F3D8514AA300D3589F464D4B187040B24D
:10484000002806DB01231370E7E70028E5D110708C
:10485000E3E702231370E0E78842DED0FFF73AFF78
:10486000DBE72B79FF2847D001221A4059065FD594
:104870006B799B0748D56B787F2B01D98023184330
:104880003E493F4B0C681B19C4081C20963320403E
:104890001870002AC1D00B680133DB05DB0D0B60FB
:1048A000BBE78021354A490013680B40034313607E
:1048B000B3E78022314B5200000210401A781043B7
:1048C0001860AAE71F230340EB70A6E73F230340CD
:1048D000AB70A2E7702341400B429ED0BEE7800739
:1048E0009BD5FFF789F90023264A00E09C5CEC5435
:1048F0000133202BFAD1B1E701210A001A401942F5
:10490000B4D08B432B7188E71C49C3000C681B187B
:104910001D481E4E9634DB001B18A700BB516B7858
:104920007F2BB6D910251648035D2B430355B0E7FE
:104930001249164F0E689636B400A446C4002018DB
:10494000114CC00000196446E05168787F2806D8F1
:10495000E0209B0003400A48DB08835599E7980054
:10496000E023034080200343F5E7C046151B0020E9
:10497000141B0020F41A00208CCB0008F01A002031
:10498000200E0020D0CB0008C04C0008C803002037
:10499000802210B5024903481201FDF75DFF10BDEA
:1049A000181B0020940100200A4B70B51D680A4CAA
:1049B0006D4223686D056D0D9D420AD0074EF05C77
:1049C000FFF720FF236801335B055B0D2360AB42DB
:1049D000F5D170BD2000024018230020181B0020D4
:1049E00003008218934200D1704719700133F9E730
:1049F00070B500260C4C0D4D641BA410A64209D1C5
:104A0000002600F019F80A4C0A4D641BA410A642B7
:104A100005D170BDB300EB5898470136EEE7B300FF
:104A2000EB5898470136F2E7F0CB0008F0CB0008CE
:104A3000F4CB0008F0CB0008F8B5C046F8BC08BCC1
:104A40009E467047F8B5C046F8BC08BC9E46704705
:104A80000000000000000000000000000000000026
:104A90000000000000000000000000000000000016
:104AA00001000000020000000300000004000000FC
:104AB00006000000070000000800000009000000D8
:104AC000122F0008AA2E0008AA2E0008AA2E0008FD
:104AD000242F0008AA2E0008AA2E0008AA2E0008DB
:104AE0004A2F0008AA2E0008AA2E0008AA2E0008A5
:104AF000362F0008AA2E0008AA2E0008AA2E0008A9
:104B0000562F00081C2F0008BE2E0008BE2E0008DD
:104B1000BE2E00082E2F0008BE2E0008BE2E000854
:104B2000BE2E00086C2F0008BE2E0008BE2E000806
:104B3000BE2E0008642F0008BE2E0008BE2E0008FE
:104B4000BE2E0008742F0008D6300008B2300008CE
:104B5000B2300008B230000838310008B230000826
:104B6000B2300008B230000844310008B23000080A
:104B7000B2300008B230000852310008B2300008EC
:104B8000B2300008B23000083C3100085A31000849
:104B9000EA300008EA300008EA30000894310008E2
:104BA000EA300008EA300008EA300008A8310008BE
:104BB000EA300008EA300008EA30000886310008D0
:104BC000EA300008EA300008EA300008A0310008A6
:104BD00020360008EC350008EC350008EC350008FC
:104BE00046360008EC350008EC350008EC350008C6
:104BF00070360008EC350008EC350008EC3500088C
:104C000096360008EC350008EC350008EC35000855
:104C1000C0360008EC350008EC350008EC3500081B
:104C2000F635000800000000000000000000000051
:104C30000000000000000000000000000000000074
:104C40000000000000000000000000000000000064
:104C50000000000000000000000000000000000054
:104C60000000000000000000000000000000000044
:104C70000000000000000000000000000000000034
:104C80000000000000000000000000000000000024
:104C90000000000000000000000000000000000014
:104CA0000000000000000000000000000000000004
:104CB00000000000000000000000000000000000F4
:104CC00000000000000000000000000000000000E4
:104CD00000000000000000000000000000000000D4
:104CE00000000000000000000000000000000000C4
:104CF00000000000000000000000000000000000B4
:104D000000000000000000000000000000000000A3
:104D1000000000000000000000000000000040044F
:104D20000040C40400C4C41400C4D43500D4F53514
:104D300000F5F53500555515000000000000000095
:104D40000000000000000000000000000000000063
:104D50000000000000000000000000000000000053
:104D6000000000040000400C0000C40400404C009F
:104D700000C4040000C4040000404C000000C4044F
:104D80000000400C000000040000000000000000D3
:104D90000000000000000000000000000000000013
:104DA00000000000000000000010000000300100C2
:104DB0000010130000003101000010130000101358
:104DC000000031010010130000300100001000004D
:104DD00000000000000000000000000000000000D3
:104DE00000000000000000000044001000CC003172
:104DF0000004101300003001000000000004001047
:104E0000000C0030000400100000000000400C0006
:104E100000C40410004C0033000400110000000026
:104E20000000000000000000000000000000000082
:104E30000000000000000000000000000000000072
:104E4000000000000000000000000000004C0031E5
:104E500000CC143300CC7D330000000000000000C3
:104E60000000000000000000000000000000000042
:104E70000000000000000000000000000000000032
:104E80000000000000000000000000000000000022
:104E9000000001100014133100141331001013131B
:104EA000001013130000310100001000000000008A
:104EB00000000000000000000000000000000000F2
:104EC000000055010050DF1700F5757D00F5FD7DF0
:104ED00000F5557D005000140000000000000001A6
:104EE0000000101300041013004C101300C41433FE
:104EF00000C4141300C4141300400001000000009B
:104F000000000000000000000000000000CCCC0009
:104F10000000000000000000000000000000000091
:104F20000044441100CCCC33004444110000000084
:104F300000000000000000000000000000CCCC00D9
:104F40000000000000000000000000000000000061
:104F500000000000000033330000110000003101A8
:104F60000000311300043133004C313300CC3533B1
:104F7000004C3133000431330000311300003101A3
:104F800000001100000033330000000000000000AA
:104F900000000000000000000000000000CCCC0079
:104FA0000000440000404C0000C44C0000CC4C10F9
:104FB00000CC4C3100CC5C3300CC4C3100CC4C10DC
:104FC00000C44C0000404C000000440000CCCC0069
:104FD00000000000000000000000000000040010BD
:104FE000004C003100040010000000000000000030
:104FF0000000000000040010004C0031000400100C
:10500000000000000000000000000000000400108C
:10501000004C0031000400100000000000000000FF
:105020000000000000000000000000000000000080
:105030000000000000000000000000000000101050
:1050400000043131005C1313005C1313005C131176
:10505000005C1310000401000000000000000000CC
:105060000000000000000000000000000000000040
:10507000001011000031330100313101007137019E
:1050800000D45D00004CC414004C4010004C0411CE
:1050900000CC5C33004C0411004C0010004C00109C
:1050A00000040000000000000000000000000000FC
:1050B000000000000000000000101100003133016A
:1050C00000313101003133010054150000CC4C1087
:1050D0000044C43500044031000400310004403174
:1050E0000044C43500CC4C10004404000000000013
:1050F00000000000000000000000000000000000B0
:10510000000000000000000000000000000000009F
:1051100000101100003173010053D55700D3DDCDCD
:105120000073D7440013C4040013C40400014000FA
:10513000000000000000000000000000000000006F
:10514000004400110000000000000000000000000A
:10515000000000000000000000000000000400103B
:10516000004C0031000400100000000000000000AE
:10517000000000000000000000000000000000002F
:105180000044001100CC14330000000000000000B7
:105190000044001100CC1433004400110000000052
:1051A00000000000000000000000000000000000FF
:1051B00000040010004C003100040010000000004A
:1051C00000000000000000000000000000000000DF
:1051D00000000000000000000000000000000000CF
:1051E000000000000044001100CC14330044001102
:1051F00000000000000000000000000000000000AF
:105200000000000000040010004C003100040010F9
:10521000000000000000000000040010000000007A
:10522000000000000000000000000000000000007E
:10523000000000000044001100CC143300440011B1
:10524000000000000000000000000000000000005E
:10525000000000000000000000040010004C0031BD
:105260000000000000041011004C313300C435115F
:10527000004C313300C4351100400011004C103394
:1052800000C4351100C43511004C10330004101156
:1052900000003101000031010044311100CC3533F0
:1052A0000044101100000000000000000004101174
:1052B000004C313300C43511004C3133000431113E
:1052C000000000110004003100040031000400312E
:1052D000000400310044101100CC3533004410317B
:1052E0000004003100040031000000100000000044
:1052F00000000000000000000000000000000000AE
:1053000000331300001301000013141500457D7FC6
:105310000040FD5D0040FD5D00447D7D00457D7FDA
:1053200000131415001301000033130000000000E7
:10533000000000000000000000000000000000006D
:1053400000000000000000000000C4CC000040C4C9
:10535000001401C4007D1350007D3111007D131035
:10536000007D351100FD5F50005405C4000040C4AD
:105370000000C4CC0000000000000000000000009D
:1053800000000000005F00F0005F00F0005D0070B2
:10539000004C003000440010000000000000140029
:1053A00000407D0100407D1300447D33004C7D3181
:1053B00000CC7D1100C47D0100407D01000014007F
:1053C000000000000000000000000000005F00F08E
:1053D000005F00F0005D0070004C003000440010E1
:1053E000000000000044141100CC7D3300007D015A
:1053F0000044351100CC7D3300445C1100407D0039
:1054000000CC7D33004414110000000000000000B7
:1054100000000000005F00F0005F00F0005D007021
:10542000004C003000440010000000000044141143
:1054300000CC7D33000031010044311100CC353304
:10544000004431110000310100CC7D3300441411BF
:10545000000000000000000000000000005F00F0FD
:10546000005F00F0005D0070004C00300044001050
:10547000000000000000140000407D0100407D019C
:1054800000447D11004C7D3100CC143300C4141352
:1054900000C41413004000010000000000000000E0
:1054A00000000000005F00F0005F00F0005D007091
:1054B000004C0030004C0030004C00300044001024
:1054C00000000000000000000000000000000000DC
:1054D00000000000000000000000000000000000CC
:1054E000000000000000000000000000005F00F06D
:1054F000005F00F0005D0070004C003000440010C0
:10550000000000000000000000000000000000009B
:10551000000000000000000000000000000000008B
:10552000000000000000000000000000000000007B
:1055300000000000001000000031010000331300E3
:10554000003333010037330100373331005D03335B
:10555000004C103300D0743300FCFC1700F5CD4C28
:1055600000D5FFCD0053CD4C0031D70400104100D1
:10557000000000000000000000000000001000001B
:1055800000310100003313000033330100373301D1
:1055900000373331005D0333004C103300D07433D7
:1055A00000FCFC1700F5CD4C00D5FFCD0053CD4CD1
:1055B0000031D7040010410000000000000000008E
:1055C00000000000000000000000000000000000DB
:1055D00000000000000000000000000000000000CB
:1055E00000000000000000000000000000000000BB
:1055F00000000000000000000000000000000000AB
:10560000000000000000000000000000000000009A
:10561000000000000000000000000000000000008A
:105620000045150100DF7F13005F5F13005F5F130C
:10563000005F5F1300DF7F130045150100000000CD
:10564000000000000000000000000000000000005A
:10565000000000000000000000000000000000004A
:10566000000000000000000000154515007FDF7FEE
:10567000005F5D5F007F5F5F005D5F5F007FDF7FDA
:1056800000154515000000000000000000000000AB
:10569000000000000000000000000000000000000A
:1056A00000000000000000000000000000000000FA
:1056B000001155040077DF4D005D5F170077DF7F35
:1056C0000017557F007FDF5F0015450500000000D3
:1056D00000000000000000000000000000000000CA
:1056E00000000000000000000000000000000000BA
:1056F00000000000000000000001051400575F7D5D
:10570000007F5F5F005FD737005F5F5F005F5F5FB5
:10571000000505050000000000000000000000007A
:105720000000000000000000000000000000000079
:105730000000000000000000000000000000000069
:105740000000040100405C1300C40401004C001080
:105750000004043100405C1300000401000000005C
:105760000000000000000000000000000000000039
:105770000000000000000000000000000000000029
:105780000000000000000000000000000000000019
:105790000000C4400000C440000000000000000001
:1057A00000000000000000000000000000000000F9
:1057B00000000000000000000000000000000000E9
:1057C00000000000000000000000000000000000D9
:1057D00000000000000000000001130000011300A1
:1057E00000000000000000000000000000000000B9
:1057F00000000000000000000000000000000000A9
:105800000000000000000000000040040000C44C44
:105810000040CC0400C44C0000CC041000CC0410A8
:1058200000CC041000CC041000CC041000CC0410F8
:1058300000CC041000C44C000040CC040000C44C58
:105840000000400400000000000000000000000014
:105850000000110000103301000031130004103368
:10586000004C0031004C0031004C0031004C003144
:10587000004C0031004C0031004C0031000410336A
:10588000000031130010330100001100000000007F
:105890000000000000000000000000000000000008
:1058A000000000000040FF0100C47D1300CC553310
:1058B00000CCFF3300CC553300C47D130040FF0102
:1058C00000000000000000000000000000000000D8
:1058D00000000000000000000000000000000000C8
:1058E00000000000000000000000000000000000B8
:1058F000000400310044103100CC3033004410313A
:105900000004003100000000000000000000000062
:105910000000000000000000000000000000000087
:105920000000000000000000000000000000000077
:105930000000000000000000000000000000000067
:105940000000000000000000000000000004001043
:10595000004C0031004C00310004103300000011F5
:105960000000000000000000000000000000000037
:105970000000000000000000000000000000000027
:1059800000000000000000000044141100CC7D3332
:10599000004414110000000000000000000000009E
:1059A00000000000000000000000000000000000F7
:1059B00000000000000000000000000000000000E7
:1059C00000000000000000000000000000000000D7
:1059D00000000000000000000000000000040010B3
:1059E000004C0031004C00310004001000000000A9
:1059F00000000000000000000000000000000000A7
:105A00000000000000000000000044000040CC0442
:105A100000C4CC0400CC4C1000CC0431004C10333A
:105A20000004313300103313001033010000110063
:105A30000000000000000000000000000000000066
:105A40000000000000000000000000000000000056
:105A50000044001100CC143300C4141300C4141308
:105A600000C4141300C4141300C4141300C414138A
:105A700000CC1433004400110000000000000000BE
:105A80000000000000000000000000000000000016
:105A900000000000000000000000001000040031C1
:105AA0000004003300040031000400310004003120
:105AB0000004003100040031000400310000001037
:105AC00000000000000000000000000000000000D6
:105AD00000000000000000000000000000000000C6
:105AE0000044101100CC353300C4351100C414003B
:105AF00000CC0410004C003100041033004431137A
:105B000000CC3533004410110000000000000000FC
:105B10000000000000000000000000000000000085
:105B200000000000000000000044001100CC14330D
:105B300000C4141300C4040100CC040000C4040019
:105B400000C4040100C4141300CC14330044001139
